{"abi":[{"type":"constructor","inputs":[],"stateMutability":"nonpayable"},{"type":"function","name":"balances","inputs":[{"name":"","type":"address","internalType":"address"}],"outputs":[{"name":"","type":"uint256","internalType":"uint256"}],"stateMutability":"view"},{"type":"function","name":"getNumber","inputs":[],"outputs":[{"name":"","type":"uint256","internalType":"uint256"}],"stateMutability":"view"},{"type":"function","name":"getTotalSum","inputs":[{"name":"n","type":"uint256","internalType":"uint256"}],"outputs":[{"name":"","type":"uint256","internalType":"uint256"}],"stateMutability":"pure"},{"type":"function","name":"setNumber","inputs":[{"name":"newNumber","type":"uint256","internalType":"uint256"}],"outputs":[],"stateMutability":"nonpayable"},{"type":"function","name":"transfer","inputs":[{"name":"to","type":"address","internalType":"address"},{"name":"value","type":"uint256","internalType":"uint256"}],"outputs":[],"stateMutability":"nonpayable"},{"type":"event","name":"Transfer","inputs":[{"name":"from","type":"address","indexed":true,"internalType":"address"},{"name":"to","type":"address","indexed":true,"internalType":"address"},{"name":"value","type":"uint256","indexed":false,"internalType":"uint256"}],"anonymous":false}],"bytecode":{"object":"0x6080604052348015600e575f5ffd5b506103e860015f3373ffffffffffffffffffffffffffffffffffffffff1673ffffffffffffffffffffffffffffffffffffffff1681526020019081526020015f20819055506105d6806100605f395ff3fe608060405234801561000f575f5ffd5b5060043610610055575f3560e01c806327e235e3146100595780633fb5c1cb14610089578063a9059cbb146100a5578063eb32c8e9146100c1578063f2c9ecd8146100f1575b5f5ffd5b610073600480360381019061006e919061035f565b61010f565b60405161008091906103a2565b60405180910390f35b6100a3600480360381019061009e91906103e5565b610124565b005b6100bf60048036038101906100ba9190610410565b61012d565b005b6100db60048036038101906100d691906103e5565b6102bc565b6040516100e891906103a2565b60405180910390f35b6100f96102f9565b60405161010691906103a2565b60405180910390f35b6001602052805f5260405f205f915090505481565b805f8190555050565b8060015f3373ffffffffffffffffffffffffffffffffffffffff1673ffffffffffffffffffffffffffffffffffffffff1681526020019081526020015f205410156101ad576040517f08c379a00000000000000000000000000000000000000000000000000000000081526004016101a4906104a8565b60405180910390fd5b8060015f3373ffffffffffffffffffffffffffffffffffffffff1673ffffffffffffffffffffffffffffffffffffffff1681526020019081526020015f205f8282546101f991906104f3565b925050819055508060015f8473ffffffffffffffffffffffffffffffffffffffff1673ffffffffffffffffffffffffffffffffffffffff1681526020019081526020015f205f82825461024c9190610526565b925050819055508173ffffffffffffffffffffffffffffffffffffffff163373ffffffffffffffffffffffffffffffffffffffff167fddf252ad1be2c89b69c2b068fc378daa952ba7f163c4a11628f55a4df523b3ef836040516102b091906103a2565b60405180910390a35050565b5f5f5f90505f600190505b8381116102ef5780826102da9190610526565b915080806102e790610559565b9150506102c7565b5080915050919050565b5f5f54905090565b5f5ffd5b5f73ffffffffffffffffffffffffffffffffffffffff82169050919050565b5f61032e82610305565b9050919050565b61033e81610324565b8114610348575f5ffd5b50565b5f8135905061035981610335565b92915050565b5f6020828403121561037457610373610301565b5b5f6103818482850161034b565b91505092915050565b5f819050919050565b61039c8161038a565b82525050565b5f6020820190506103b55f830184610393565b92915050565b6103c48161038a565b81146103ce575f5ffd5b50565b5f813590506103df816103bb565b92915050565b5f602082840312156103fa576103f9610301565b5b5f610407848285016103d1565b91505092915050565b5f5f6040838503121561042657610425610301565b5b5f6104338582860161034b565b9250506020610444858286016103d1565b9150509250929050565b5f82825260208201905092915050565b7f4e6f7420656e6f7567682062616c616e636500000000000000000000000000005f82015250565b5f61049260128361044e565b915061049d8261045e565b602082019050919050565b5f6020820190508181035f8301526104bf81610486565b9050919050565b7f4e487b71000000000000000000000000000000000000000000000000000000005f52601160045260245ffd5b5f6104fd8261038a565b91506105088361038a565b92508282039050818111156105205761051f6104c6565b5b92915050565b5f6105308261038a565b915061053b8361038a565b9250828201905080821115610553576105526104c6565b5b92915050565b5f6105638261038a565b91507fffffffffffffffffffffffffffffffffffffffffffffffffffffffffffffffff8203610595576105946104c6565b5b60018201905091905056fea26469706673582212204d729796a81d3b2206df2f458b0b9e05f4318e07ece199c0bb066d9d62507afa64736f6c63430008210033","linkReferences":{}},"methodIdentifiers":{"balances(address)":"27e235e3","getNumber()":"f2c9ecd8","getTotalSum(uint256)":"eb32c8e9","setNumber(uint256)":"3fb5c1cb","transfer(address,uint256)":"a9059cbb"},"id":28}