{"abi":[{"type":"function","name":"getNumber","inputs":[],"outputs":[{"name":"","type":"uint256","internalType":"uint256"}],"stateMutability":"view"},{"type":"function","name":"getTotalSum","inputs":[{"name":"n","type":"uint256","internalType":"uint256"}],"outputs":[{"name":"","type":"uint256","internalType":"uint256"}],"stateMutability":"pure"},{"type":"function","name":"setNumber","inputs":[{"name":"newNumber","type":"uint256","internalType":"uint256"}],"outputs":[],"stateMutability":"nonpayable"}],"bytecode":{"object":"0x6080604052348015600e575f5ffd5b506102628061001c5f395ff3fe608060405234801561000f575f5ffd5b506004361061003f575f3560e01c80633fb5c1cb14610043578063eb32c8e91461005f578063f2c9ecd81461008f575b5f5ffd5b61005d60048036038101906100589190610132565b6100ad565b005b61007960048036038101906100749190610132565b6100b6565b604051610086919061016c565b60405180910390f35b6100976100f3565b6040516100a4919061016c565b60405180910390f35b805f8190555050565b5f5f5f90505f600190505b8381116100e95780826100d491906101b2565b915080806100e1906101e5565b9150506100c1565b5080915050919050565b5f5f54905090565b5f5ffd5b5f819050919050565b610111816100ff565b811461011b575f5ffd5b50565b5f8135905061012c81610108565b92915050565b5f60208284031215610147576101466100fb565b5b5f6101548482850161011e565b91505092915050565b610166816100ff565b82525050565b5f60208201905061017f5f83018461015d565b92915050565b7f4e487b71000000000000000000000000000000000000000000000000000000005f52601160045260245ffd5b5f6101bc826100ff565b91506101c7836100ff565b92508282019050808211156101df576101de610185565b5b92915050565b5f6101ef826100ff565b91507fffffffffffffffffffffffffffffffffffffffffffffffffffffffffffffffff820361022157610220610185565b5b60018201905091905056fea2646970667358221220352a280bbc5bc4299dd1df9fe948de619c5eb06191db3fb80b79609e355d38df64736f6c63430008210033","linkReferences":{}},"methodIdentifiers":{"getNumber()":"f2c9ecd8","getTotalSum(uint256)":"eb32c8e9","setNumber(uint256)":"3fb5c1cb"},"id":21}