{"abi":[{"type":"constructor","inputs":[],"stateMutability":"nonpayable"},{"type":"function","name":"balances","inputs":[{"name":"","type":"address","internalType":"address"}],"outputs":[{"name":"","type":"uint256","internalType":"uint256"}],"stateMutability":"view"},{"type":"function","name":"getNumber","inputs":[],"outputs":[{"name":"","type":"uint256","internalType":"uint256"}],"stateMutability":"view"},{"type":"function","name":"getTotalSum","inputs":[{"name":"n","type":"uint256","internalType":"uint256"}],"outputs":[{"name":"","type":"uint256","internalType":"uint256"}],"stateMutability":"pure"},{"type":"function","name":"setNumber","inputs":[{"name":"newNumber","type":"uint256","internalType":"uint256"}],"outputs":[],"stateMutability":"nonpayable"},{"type":"function","name":"transfer","inputs":[{"name":"to","type":"address","internalType":"address"},{"name":"value","type":"uint256","internalType":"uint256"}],"outputs":[],"stateMutability":"nonpayable"},{"type":"event","name":"Transfer","inputs":[{"name":"from","type":"address","indexed":true,"internalType":"address"},{"name":"to","type":"address","indexed":true,"internalType":"address"},{"name":"value","type":"uint256","indexed":false,"internalType":"uint256"}],"anonymous":false}],"bytecode":{"object":"0x6080604052348015600e575f5ffd5b506103e860015f3373ffffffffffffffffffffffffffffffffffffffff1673ffffffffffffffffffffffffffffffffffffffff1681526020019081526020015f2081905550610655806100605f395ff3fe608060405234801561000f575f5ffd5b5060043610610055575f3560e01c806327e235e3146100595780633fb5c1cb14610089578063a9059cbb146100a5578063eb32c8e9146100c1578063f2c9ecd8146100f1575b5f5ffd5b610073600480360381019061006e91906103bd565b61010f565b6040516100809190610400565b60405180910390f35b6100a3600480360381019061009e9190610443565b610124565b005b6100bf60048036038101906100ba919061046e565b61012d565b005b6100db60048036038101906100d69190610443565b61032a565b6040516100e89190610400565b60405180910390f35b6100f9610357565b6040516101069190610400565b60405180910390f35b6001602052805f5260405f205f915090505481565b805f8190555050565b5f73ffffffffffffffffffffffffffffffffffffffff168273ffffffffffffffffffffffffffffffffffffffff160361019b576040517f08c379a000000000000000000000000000000000000000000000000000000000815260040161019290610506565b60405180910390fd5b8060015f3373ffffffffffffffffffffffffffffffffffffffff1673ffffffffffffffffffffffffffffffffffffffff1681526020019081526020015f2054101561021b576040517f08c379a00000000000000000000000000000000000000000000000000000000081526004016102129061056e565b60405180910390fd5b8060015f3373ffffffffffffffffffffffffffffffffffffffff1673ffffffffffffffffffffffffffffffffffffffff1681526020019081526020015f205f82825461026791906105b9565b925050819055508060015f8473ffffffffffffffffffffffffffffffffffffffff1673ffffffffffffffffffffffffffffffffffffffff1681526020019081526020015f205f8282546102ba91906105ec565b925050819055508173ffffffffffffffffffffffffffffffffffffffff163373ffffffffffffffffffffffffffffffffffffffff167fddf252ad1be2c89b69c2b068fc378daa952ba7f163c4a11628f55a4df523b3ef8360405161031e9190610400565b60405180910390a35050565b5f5f5f90505f5f90505b83811161034d5780820191508080600101915050610334565b5080915050919050565b5f5f54905090565b5f5ffd5b5f73ffffffffffffffffffffffffffffffffffffffff82169050919050565b5f61038c82610363565b9050919050565b61039c81610382565b81146103a6575f5ffd5b50565b5f813590506103b781610393565b92915050565b5f602082840312156103d2576103d161035f565b5b5f6103df848285016103a9565b91505092915050565b5f819050919050565b6103fa816103e8565b82525050565b5f6020820190506104135f8301846103f1565b92915050565b610422816103e8565b811461042c575f5ffd5b50565b5f8135905061043d81610419565b92915050565b5f602082840312156104585761045761035f565b5b5f6104658482850161042f565b91505092915050565b5f5f604083850312156104845761048361035f565b5b5f610491858286016103a9565b92505060206104a28582860161042f565b9150509250929050565b5f82825260208201905092915050565b7f696e76616c6964206164647265737300000000000000000000000000000000005f82015250565b5f6104f0600f836104ac565b91506104fb826104bc565b602082019050919050565b5f6020820190508181035f83015261051d816104e4565b9050919050565b7f4e6f7420656e6f7567682062616c616e636500000000000000000000000000005f82015250565b5f6105586012836104ac565b915061056382610524565b602082019050919050565b5f6020820190508181035f8301526105858161054c565b9050919050565b7f4e487b71000000000000000000000000000000000000000000000000000000005f52601160045260245ffd5b5f6105c3826103e8565b91506105ce836103e8565b92508282039050818111156105e6576105e561058c565b5b92915050565b5f6105f6826103e8565b9150610601836103e8565b92508282019050808211156106195761061861058c565b5b9291505056fea2646970667358221220cf5c2ccfb03e2aac6215747f37f2e0d94bced15f4d2389ef53ad7d267a298b6f64736f6c63430008210033","linkReferences":{}},"methodIdentifiers":{"balances(address)":"27e235e3","getNumber()":"f2c9ecd8","getTotalSum(uint256)":"eb32c8e9","setNumber(uint256)":"3fb5c1cb","transfer(address,uint256)":"a9059cbb"},"id":25}